:1000000012C0189518951895189518951895189563
:100010001895189518951895189518951895189578
:100020001895189518958FE58DBFC0E4E8E34E2E1E
:1000300084E08EBFD4E0F4E05F2EEEEFF3E0A0E6C4
:10004000B0E0A89584B7082E877F84BF88E1992700
:1000500081BD91BD88278D933197E9F789E189B9F1
:1000600080E080BD88E18AB966248E9AAFD180E2B3
:1000700090E0AAE6B0E08D939C9380E292E0ACE63B
:10008000B0E08D939C9380E098E2AAE7B0E08D9376
:100090009C9380E090E2ACE7B0E08D939C9385E781
:1000A00090E8AEE6B0E08D939C9389E599E9A0E7EE
:1000B000B0E08D939C9383E793E3A2E7B0E08D9348
:1000C0009C938CE49CECA4E7B0E08D939C9389E630
:1000D00090EFA6E7B0E08D939C9380E490E0A8E7D2
:1000E000B0E08D939C93E5E0F0E060D1E8E4F4E0CB
:1000F00050D155D1ECE5F4E04CD151D1E0E8F4E039
:1001000048D14DD1E4EAF4E044D149D1E8ECF4E03F
:1001100040D145D1ECEEF4E03CD141D1E2E1F5E053
:1001200038D13DD1EAE3F5E034D139D1EEE5F5E05F
:1001300030D135D1EEE7F5E02CD131D1E8EAF5E068
:1001400028D12DD1ECEBF5E024D129D1A4E6B0E003
:1001500035E002D1A4E6B0E0EEEBF5E062D109F0C3
:1001600005C092E0AAE7B0E02AD19AC0E4ECF5E03D
:1001700058D109F005C092E0ACE7B0E020D190C0C2
:10018000EAECF5E04ED109F013C0E2E6F0E0FA93B4
:10019000EA935A924A9284E690E0A42DB52D8D936D
:1001A0009C9382E0D3D07FD0249682E0CBD078C0DD
:1001B000E0EDF5E036D109F00DC092E0AAE6B0E03E
:1001C000FED092E0A6E7B0E0FAD092E0A8E7B0E077
:1001D000F6D066C0E6EDF5E024D109F009C092E062
:1001E000AEE6B0E0ECD092E0A0E7B0E0E8D058C0D6
:1001F000ECEDF5E016D109F009C092E0A2E7B0E01D
:10020000DED092E0A4E7B0E0DAD04AC0E2EEF5E05A
:1002100008D109F005C092E0AAE6B0E0D0D040C015
:10022000E8EEF5E0FED009F005C092E0ACE6B0E003
:10023000C6D036C0EEEEF5E0F4D009F02DC0E8E40B
:10024000F4E0A7D0ACD0ECE5F4E0A3D0A8D0E0E88F
:10025000F4E09FD0A4D0E4EAF4E09BD0A0D0E8EC96
:10026000F4E097D09CD0ECEEF4E093D098D0E2E1AB
:10027000F5E08FD094D0EAE3F5E08BD090D0EEE5B6
:10028000F5E087D08CD0EEE7F5E083D088D0E8EABF
:10029000F5E07FD084D004C0E4EFF5E07AD07FD0E1
:1002A00051CFF894FFCF8AE090E0AA81BB818D9373
:1002B0009C93969AA881B9818D919C919FD0969894
:1002C000A881B9818D919C9199D0969AA881B98184
:1002D0008D919C9193D09698A881B9818D919C9194
:1002E0008DD0969AA881B9818D919C9187D096984E
:1002F000A881B9818D919C9181D0969AA881B9816C
:100300008D919C917BD09698A881B9818D919C917B
:1003100075D0969AA881B9818D919C916FD096984D
:10032000A881B9818D919C9169D0969AA881B98153
:100330008D919C9163D09698A881B9818D919C9163
:100340005DD00895481A8827580A0895480E8827CE
:10035000581E0895A0E2B4E018D0883091F08D3096
:1003600039F03323C9F38D933A9563FE1BD0F4CF54
:1003700063FC04C08DE016D08AE014D088278C93EB
:10038000089510D011973395E7CF5F9BFECF8CB1C6
:10039000089543D0802D11F005D0FBCF08958DE056
:1003A00001D08AE05D9BFECF8CB9089588EE93E082
:1003B00025D03197D9F708953197F1F708950FD0E7
:1003C0008D9111D09A95E1F70CD00895BD9ABC9803
:1003D000C49ABB9ABA9AC29A88E58DB90895C29810
:1003E0000895C29A08958FB9779BFECF8FB1089573
:1003F000689462F80895E89462F80895EF93FF9383
:10040000EE27E82BE92B31F0E0EDF7E03197F1F73B
:100410000197D1F7FF91EF910895C895319600208B
:100420000895689401C0E894AF93BF938D9116F03E
:10043000919102C0F2DF902D891718F011F48823F2
:10044000A9F7BF91AF9108954444532D5369676E46
:10045000616C67656E657261746F72006269747455
:10046000652077E4686C652061757320666F6C6742
:10047000656E64656E204F7074696F6E656E3A00CC
:100480006964656E74202D204964656E74696669BF
:100490007A696572742064656E2047656E65726165
:1004A000746F72004672656731202D206469652083
:1004B0006572737465204672657175656E7A202861
:1004C00031304D487A2900004672656732202D2070
:1004D000646965207A77656974652046726571750F
:1004E000656E7A2028354D487A29000053696E756B
:1004F00073202D2041757367616E67737369676E32
:10050000616C206973742065696E2053696E757320
:100510000000747269616E202D2041757367616EF1
:1005200067737369676E616C206973742065696EA7
:10053000204472656965636B00006D6974746520A1
:100540002D2053696E75732C20417564696F6D6938
:100550007474656E6672657175656E7A0000636CA1
:100560006B2D31202D20526563687465636B736950
:10057000676E616C20617573676562656E00636CA0
:100580006B2D32205F20526563687465636B7369FD
:10059000676E616C206D697420312F322A462041CC
:1005A0007573676562656E0068656C70202D2064E8
:1005B000696573652048696C666500000000636CBE
:1005C0006B2D3100636C6B2D32006964656E7400B5
:1005D0006D697474650046726567310046726567BF
:1005E000320053696E757300747269616E006865DC
:1005F0006C7000004572726F7221204265666568FA
:100600006C206E6963687420766F7268616E6465D1
:040610006E21000057
:00000001FF
