:1000000082C000009BC0000099C0000097C00000A3
:1000100095C0000093C0000091C000008FC0000098
:100020008DC000008BC0000089C00000F3C3000039
:1000300085C0000083C0000081C000007FC00000B8
:100040007DC000007BC0000079C0000077C00000C8
:1000500075C0000073C0000071C000006FC00000D8
:100060006DC000006BC0000069C0000067C00000E8
:1000700065C0000020035300690067006E00610046
:100080006C00670065006E0065007200610074001E
:100090006F007200000016034C0061006200430014
:1000A0006F006E006E0065006300740000000403C2
:1000B000090409022200010100C032090400000104
:1000C0000300000009211101000122200007058121
:1000D0000308000512011001000000080912222285
:1000E0000100010200010600FF0901A1010902153A
:1000F0000025FF7508950881020903150025FF7585
:100100000895089102C011241FBECFEFD4E0DEBFD6
:10011000CDBF11E0A0E0B1E0EEE8F0E102C0059053
:100120000D92A832B107D9F711E0A8E2B1E001C001
:100130001D92AF33B107E1F7A0D0A7C761CF0895F3
:10014000089580E091E0AFD6E2EEF0E08081846037
:100150008083089580E091E06EC580910E019091BA
:100160000F01009729F0019790930F0180930E01E2
:1001700008950F931F9388E090E0F80191838083A6
:1001800080E01F910F910895809126018BB9809195
:100190001D0190911C01289825E02A95F1F7000097
:1001A0009EBD0DB407FEFDCF8EBD0DB407FEFDCF85
:1001B00085E08A95F1F70000289A80911F019091BF
:1001C0001E01289825E02A95F1F700009EBD0DB488
:1001D00007FEFDCF8EBD0DB407FEFDCF85E08A95ED
:1001E000F1F70000289A8091210190912001289830
:1001F00025E02A95F1F700009EBD0DB407FEFDCF66
:100200008EBD0DB407FEFDCF85E08A95F1F70000A5
:10021000289A089584B7877F84BF88E10FB6F89441
:1002200080936000109260000FBE90E080E80FB6EF
:10023000F89480936100909361000FBEDCD2209A05
:10024000289A84B1866084B9239885B18A6085B97B
:100250008DB581608DBD8AE58CBD80912901882393
:1002600059F0E0E1F1E0ACE1B1E081918D9381E002
:10027000EC31F807D1F788CF0895CCDF789480E08F
:1002800091E024D6BED4FBCFCF93DF93CCE1D1E075
:10029000FE01D9018D919D018193B1E0E832FB0708
:1002A000C1F772DF80912701982F907F903121F460
:1002B00091E09093290102C0109229018F70813042
:1002C00041F4E0E1F1E08991819381E0C832D807FF
:1002D000D1F7DF91CF910895292F332723303105AE
:1002E000E1F05CF42130310599F02230310579F5E7
:1002F00082E290E022EB30E02EC02132310511F194
:100300002232310521F580E290E026EE30E023C074
:1003100082E190E024ED30E01EC099278130910504
:1003200041F08230910541F0892B89F4EEEAF0E04A
:1003300005C0E6E9F0E002C0E4E7F0E0849190E077
:100340009F0109C089E090E024EC30E004C080E027
:1003500090E020E030E0FA01318320830895CF92CD
:10036000DF92EF92FF920F931F93CF93DF93EC01F5
:100370008B017A01D5D1811133C0E114F10439F038
:10038000F70180819181081B190BC80FD91FC12C5F
:10039000D12C0115110519F18091E80085FD16C0D9
:1003A0008091E8008E778093E8002BD4E114F1046B
:1003B00049F0F70180819181C80ED91ED182C08297
:1003C00085E00EC0ADD1882321F30AC089918093C6
:1003D000F10001501109FFEFCF1ADF0ADACF80E0F8
:1003E000DF91CF911F910F91FF90EF90DF90CF9011
:1003F000089520913D0130913E012617370748F0BE
:100400006115710539F42091E8002E772093E800FA
:1004100001C0B90140E06115710591F120913601EB
:10042000222309F440C0253009F43FC02091E800A0
:1004300023FD3DC02091E80022FD2FC02091E8005F
:1004400020FFE9CF2091F20030E0FC01CF016115DF
:10045000710559F02830310540F481918093F10005
:10046000615071092F5F3F4FF1CF41E028303105D6
:1004700009F040E02091E8002E772093E800CBCFF0
:100480004111CCCF0AC080913601882361F08530BC
:1004900061F08091E80083FD0AC08091E80082FF4E
:1004A000F2CF80E0089582E0089583E0089581E02E
:1004B00008956115710529F42091E8002B772093A8
:1004C000E800FC016115710521F180913601882356
:1004D00041F1853041F18091E80083FD20C0809199
:1004E000E80082FFEFCF8091F200882331F0809105
:1004F000F100819361507109B1F78091E8008B7729
:100500008093E800DFCF80913601882351F0853059
:1005100051F08091E80080FFF6CF80E0089581E0FF
:10052000089582E0089583E0089520913D0130917F
:100530003E012617370748F06115710539F42091FF
:10054000E8002E772093E80001C0B901FC0120E00B
:100550006115710579F180913601882309F43DC058
:10056000853009F43CC08091E80083FD3AC0809159
:10057000E80082FD2CC08091E80080FFE9CF8091E7
:10058000F20090E06115710559F08830910540F452
:1005900024912093F1003196615071090196F2CFB8
:1005A00021E0089709F020E08091E8008E778093A1
:1005B000E800CECF2111CFCF0AC080913601882329
:1005C00061F0853061F08091E80083FD0AC0809180
:1005D000E80082FFF2CF80E0089582E0089583E092
:1005E000089581E00895982F953058F59093E9008B
:1005F000981739F07091EC002091ED005091F000C7
:1006000003C0242F762F50E021FF19C03091EB005A
:100610003E7F3093EB003091ED003D7F3093ED0055
:100620003091EB0031603093EB007093EC0020933D
:10063000ED005093F0002091EE0027FF07C09F5F70
:10064000D3CF8F708093E90081E0089580E0089512
:10065000EF92FF920F931F93CF93DF93E62EEC015F
:100660008C010C5F1F4FF12CFE1499F19881992396
:1006700059F1F801208169817A8131973081892F80
:100680008F70853010F080E025C0223010F442E0F9
:1006900001C046E0E8E0F0E020E0E617F70720F4CC
:1006A0002F5FEE0FFF1FF9CF2295207F422B232FC4
:1006B0002295220F220F207C991F9927991F622FC4
:1006C000692B91DF8823F9F2F39425960B5F1F4F76
:1006D000CBCF81E0DF91CF911F910F91FF90EF90F1
:1006E00008958091370187FF11C08091E80082FD55
:1006F00005C0809136018111F8CF11C08091E800CA
:100700008B770BC080913601882349F08091E800F7
:1007100080FFF8CF8091E8008E778093E8000895FD
:100720002091E4003091E50095E64091EC00842FA3
:10073000817040FF22C08091E80080FD1CC0809144
:100740003601882391F0853091F08091EB0085FD92
:1007500010C04091E4005091E5004217530729F37F
:100760009A01915011F784E0089582E0089583E0A2
:10077000089581E0089580E008954091E80042FFE7
:10078000DECF089541D043D08091D8008F778093F9
:10079000D8008091D80080688093D8008091D800DC
:1007A0008F7D8093D80084E089BD86E089BD09B43F
:1007B00000FEFDCF109236011092320110923401EA
:1007C0001092330142E060E080E00DDF8091E100B3
:1007D0008E7F8093E1008091E20081608093E2004F
:1007E0008091E20088608093E2008091E0008E7F3B
:1007F0008093E0000895E3E6F0E080818E7F8083BF
:1008000081E080933501BECF1092E20008951092EE
:10081000E10008951F920F920FB60F9211242F93AB
:100820003F934F935F936F937F938F939F93AF9378
:10083000BF93EF93FF938091E10082FF0AC0809104
:10084000E20082FF06C08091E1008B7F8093E1008F
:1008500084DC8091E10080FF17C08091E20080FF7E
:1008600013C08091E2008E7F8093E2008091E200CD
:1008700080618093E2008091D80080628093D800EC
:1008800019BC109236015CDC8091E10084FF2FC01E
:100890008091E20084FF2BC084E089BD86E089BDA1
:1008A00009B400FEFDCF8091D8008F7D8093D800E1
:1008B0008091E1008F7E8093E1008091E2008F7E45
:1008C0008093E2008091E20081608093E200809159
:1008D0003201882311F084E007C08091E30087FD96
:1008E00002C081E001C083E08093360128DC809162
:1008F000E10083FF22C08091E20083FF1EC080914F
:10090000E100877F8093E10082E0809336011092BE
:1009100032018091E1008E7F8093E1008091E200BE
:100920008E7F8093E2008091E20080618093E200FC
:1009300042E060E080E057DE63D1FF91EF91BF912C
:10094000AF919F918F917F916F915F914F913F9167
:100950002F910F900FBE0F901F9018951F93CF935C
:10096000DF93CDB7DEB7AA970FB6F894DEBF0FBE00
:10097000CDBFE7E3F1E088E08E0F9091F100919315
:100980008E13FBCFE7DB8091E80083FF21C18091CC
:10099000370190913801953009F478C030F49130E6
:1009A00081F168F0933069F113C1983009F4E2C025
:1009B000993009F4F1C0963009F00AC189C0803835
:1009C00081F0823809F004C180913B018F708093DF
:1009D000E9008091EB0085FB882780F91092E900FF
:1009E00006C0809133019091340191118260909101
:1009F000E800977F9093E8008093F1001092F10057
:100A0000C4C0282F2D7F09F0E3C0882319F082305D
:100A100061F0DEC080913901813009F0D9C0933096
:100A200009F080E0809334012BC08091390181115D
:100A300027C080913B018F7009F4CAC08093E90000
:100A40002091EB0020FF1CC0933021F48091EB003B
:100A5000806214C09091EB0090619093EB0021E0D4
:100A600030E0A90102C0440F551F8A95E2F7409378
:100A7000EA001092EA008091EB0088608093EB001E
:100A80001092E9008091E800877F82C08111A0C0A8
:100A9000109139011F778091E3008078812B80933A
:100AA000E3008091E800877F8093E8001ADE809160
:100AB000E80080FFFCCF8091E30080688093E30032
:100AC000111102C082E001C083E08093360180C032
:100AD0008058823008F07CC08091390190913A01B1
:100AE0008C3D53E0950771F583E08A838AE2898320
:100AF0004FB7F894DE01139620E03EE051E2E32F79
:100B0000F0E050935700E49120FF03C0E295EF70AE
:100B10003F5FEF708E2F90E0EA3010F0C79601C073
:100B2000C0968D939D932F5F243149F74FBF8091DD
:100B3000E800877F8093E8006AE270E0CE010196CA
:100B400058DC12C0AE014F5F5F4F60913B01C4DBC8
:100B5000BC01009709F43CC09091E800977F909306
:100B6000E80089819A81E1DC8091E8008B778093AD
:100B7000E8002EC0803861F58091E800877F80937F
:100B8000E800809132018093F1008091E8008E7737
:100B90008093E800A6DD1CC081111AC09091390134
:100BA0009230B0F48091E800877F8093E8009093C2
:100BB000320197DD80913201811106C08091E300FE
:100BC00087FD02C081E001C084E080933601B9DA7C
:100BD0008091E80083FF0AC08091E800877F8093BE
:100BE000E8008091EB0080628093EB00AA960FB63C
:100BF000F894DEBF0FBECDBFDF91CF911F91089556
:100C00000895CF9380913601882399F0C091E9002F
:100C1000CF709091EC00892F817090FD80E8C82BF7
:100C20001092E9008091E80083FD98DECF70C093B8
:100C3000E900CF9108956F927F928F929F92AF9229
:100C4000BF92CF92DF92EF92FF920F931F93CF93B9
:100C5000DF9300D01F92CDB7DEB77C01CDB6DEB6F4
:100C60008091E80083FF08C1F701808190E0209126
:100C70003B0130913C012817390709F0FDC08091F4
:100C80003801833009F49FC030F4813071F0823034
:100C900009F4D6C0F1C08A3009F4BAC08B3009F427
:100CA000A3C0893009F0E8C051C080913701813A72
:100CB00009F0E2C08DB69EB61A8219828091390180
:100CC00010913A018B83F7018085482F50E08DB752
:100CD0009EB7841B950B0FB6F8949EBF0FBE8DBFB9
:100CE000EDB7FEB731965F0160E070E0CF01C6D18D
:100CF0004FEF410F8E010F5F1F4F9501BE016D5FDA
:100D00007F4FC70136DAF70186819781009721F07E
:100D1000408550E0B501A9D11092E9008091E8002A
:100D2000877F8093E8008B8181118093F100698136
:100D30007A81C5015EDB8091E8008B778093E800C3
:100D40000FB6F8949EBE0FBE8DBE96C0809137013F
:100D5000813209F091C0ADB6BEB600913D0110914F
:100D60003E017090390160903A018DB79EB7801BAB
:100D7000910B0FB6F8949EBF0FBE8DBFEDB7FEB7B7
:100D800031964F018091E800877F8093E800B80199
:100D9000CF018FDB8091E8008E778093E80021E01F
:100DA000711001C020E030E0021B130B280D391D2B
:100DB0004FEF460D672DC70167DA0FB6F894BEBE38
:100DC0000FBEADBE59C080913701813A09F054C0C1
:100DD0008091E800877F8093E8008091E80080FFA1
:100DE000FCCFF701818540C080913701813209F045
:100DF00043C08091E800877F8093E80072DC909187
:100E0000390181E0911101C080E0F701818734C090
:100E100080913701813281F58091E800877F80934E
:100E2000E8005FDC8091390190913A01882736E033
:100E3000969587953A95E1F7F701958784871CC0C9
:100E400080913701813AC1F48091E800877F8093D7
:100E5000E8008091E80080FFFCCFF701848595854C
:100E600096958795969587958093F1008091E800F7
:100E70008E778093E80035DC0FB6F894DEBE0FBEA7
:100E8000CDBE0F900F900F90DF91CF911F910F91DA
:100E9000FF90EF90DF90CF90BF90AF909F908F909A
:100EA0007F906F900895FC01399627E0DF011D9235
:100EB0002A95E9F721E0FC01218724EF31E035870D
:100EC000248723E0248361E00196C2CB4F925F9296
:100ED0006F927F928F929F92AF92BF92CF92DF924A
:100EE000EF92FF920F931F93CF93DF9300D01F9247
:100EF000CDB7DEB77C01ADB6BEB680913601843089
:100F000009F08DC08091E4009091E500F701228501
:100F100033852817390709F482C081818F70809347
:100F2000E9008091E80085FF7AC08DB69EB64085C5
:100F300050E08DB79EB7841B950B0FB6F8949EBFFB
:100F40000FBE8DBFEDB7FEB731966F011B821A82BF
:100F5000198260E070E0CF0191D08E010F5F1F4FCA
:100F6000960140E0BE016D5F7F4FC70102D9482E58
:100F7000F70184859585892B51F091E080E02685E5
:100F80003785232B09F090E0092F182F02C000E0CD
:100F900010E0F701668077806114710489F049815F
:100FA0005A81B301C60154D055245394892B09F4B6
:100FB000512CF701408550E0B601C30156D001C065
:100FC000512C89819A81892BF1F0411004C0511074
:100FD00002C0012BC1F0F70184859585978786872C
:100FE00081818F708093E9008B8181118093F10062
:100FF00069817A8140E050E0C601B1D98091E80072
:101000008E778093E8008091E4009091E500F701ED
:10101000938782870FB6F8949EBE0FBE8DBE0FB623
:10102000F894BEBE0FBEADBE0F900F900F90DF9133
:10103000CF911F910F91FF90EF90DF90CF90BF90D5
:10104000AF909F908F907F906F905F904F9008959A
:10105000FB01DC0104C08D910190801921F4415005
:101060005040C8F7881B990B0895FB01DC0102C0B2
:1010700001900D9241505040D8F70895DC0101C015
:0E1080006D9341505040E0F70895F894FFCF73
:10108E000081080000012A01080000000000000095
:10109E002000400069F100000000181120004000FF
:0810AE0069F1000000001811B7
:00000001FF
