:1000000055C000006EC000006CC000006AC0000057
:1000100068C0000066C0000064C0000062C000004C
:1000200060C000005EC0000084C100005AC0000033
:1000300058C0000056C0000054C0000052C000006C
:1000400050C000004EC000004CC000004AC000007C
:1000500048C0000046C0000044C0000042C000008C
:1000600040C000003EC000003CC000003AC000009C
:1000700038C0000036C0000034C0000032C00000AC
:1000800030C000002EC000002CC000002AC00000BC
:1000900028C0000026C0000024C0000022C00000CC
:1000A00020C000001EC000001CC0000011241FBEA4
:1000B000CFEFDAE0DEBFCDBF11E0A0E0B1E0E4ECCD
:1000C000F4E002C005900D92AC31B107D9F711E010
:1000D000ACE1B1E001C01D92A233B107E1F78AD0D3
:1000E000EFC18ECF84B7877F84BF88E10FB6F894C5
:1000F00080936000109260000FBE90E080E80FB621
:10010000F89480936100909361000FBEF5D0209A1F
:10011000289A84B1866084B9239885B18A6085B9AC
:100120008DB581608DBD8AE58CBDECEBF0E0808102
:10013000846080831092B90080E28093B80088E3E5
:100140008AB98BB908950895089580910E01909110
:100150000F01009729F0019790930F0180930E01F2
:100160000895289885E08A95F1F7000080E28EBD19
:100170000DB407FEFDCF82E08EBD0DB407FEFDCFAE
:1001800085E08A95F1F70000289A8AE18A95F1F7CF
:1001900000C0289885E08A95F1F7000082E58EBDC1
:1001A0000DB407FEFDCF80EC8EBD0DB407FEFDCF74
:1001B00085E08A95F1F70000289A8AE18A95F1F79F
:1001C00000C0289885E08A95F1F7000080E68EBD92
:1001D0000DB407FEFDCF85EC8EBD0DB407FEFDCF3F
:1001E00085E08A95F1F70000289A8AE18A95F1F76F
:1001F00000C0089577DF7894B4DF2FEF89E698E1A7
:10020000215080409040E1F700C00000F5CF982FCA
:10021000973058F59093E900981739F07091EC00F9
:100220002091ED005091F00003C0242F762F50E074
:1002300021FF19C03091EB003E7F3093EB003091ED
:10024000ED003D7F3093ED003091EB003160309355
:10025000EB007093EC002093ED005093F0002091A0
:10026000EE0027FF07C09F5FD3CF8F708093E90018
:1002700081E0089580E008950F931F93CF93DF935B
:100280004BD052D0C8EDD0E088818F7788838881A9
:100290008068888388818F7D888319BC10922901AA
:1002A00010922501109227011092260100EE10E015
:1002B000F80180818B7F808388818160888342E020
:1002C00060E080E0A4DFE1EEF0E080818E7F80835B
:1002D000E2EEF0E0808181608083808188608083AD
:1002E000F80180818E7F8083888180618883DF919F
:1002F000CF911F910F910895E8EDF0E080818F7EFE
:100300008083E7EDF0E080818160808384E082BFBC
:1003100081E080932801B0CFE8EDF0E080818E7F0E
:1003200080831092E20008951092DA001092E100AA
:1003300008951F920F920FB60F9211242F933F939F
:100340004F935F936F937F938F939F93AF93BF93DD
:10035000EF93FF938091E10082FF0AC08091E20059
:1003600082FF06C08091E1008B7F8093E100EDDE8B
:100370008091DA0080FF1DC08091D80080FF19C0F5
:100380008091DA008E7F8093DA008091D90080FF1F
:100390000CC080E189BD82E189BD09B400FEFDCFBA
:1003A00081E080932901CFDE04C019BC109229019D
:1003B000CBDE8091E10080FF18C08091E20080FFD9
:1003C00014C08091E2008E7F8093E2008091E20071
:1003D00080618093E2008091D80080628093D80091
:1003E00019BC85E0809329016AD08091E10084FFE7
:1003F0002FC08091E20084FF2BC080E189BD82E1A3
:1004000089BD09B400FEFDCF8091D8008F7D809317
:10041000D8008091E1008F7E8093E1008091E2001E
:100420008F7E8093E2008091E20081608093E20001
:1004300080912501882311F084E007C08091E300BA
:1004400087FD02C081E001C083E08093290137D09D
:100450008091E10083FF22C08091E20083FF1EC0F3
:100460008091E100877F8093E10082E08093290101
:10047000109225018091E1008E7F8093E1008091B0
:10048000E2008E7F8093E2008091E20080618093A1
:10049000E20042E060E080E0BADE11D0FF91EF912F
:1004A000BF91AF919F918F917F916F915F914F918C
:1004B0003F912F910F900FBE0F901F9018950895A8
:0404C000F894FFCFDE
:1004C4000081080000011D01080000000000000078
:0C04D4002000400069F10000000018004A
:00000001FF
