:1000000082C000009BC0000099C0000097C00000A3
:1000100095C0000093C0000091C000008FC0000098
:100020008DC000008BC0000089C00000A0C300008C
:1000300085C0000083C0000081C000007FC00000B8
:100040007DC000007BC0000079C0000077C00000C8
:1000500075C0000073C0000071C000006FC00000D8
:100060006DC000006BC0000069C0000067C00000E8
:1000700065C0000020035300690067006E00610046
:100080006C00670065006E0065007200610074001E
:100090006F007200000016034C0061006200430014
:1000A0006F006E006E0065006300740000000403C2
:1000B000090409022200010100C032090400000104
:1000C0000300000009211101000122200007058121
:1000D000030800051201100100000008EB034F2087
:1000E0000100010200010600FF0901A1010902153A
:1000F0000025FF7508950881020903150025FF7585
:100100000895089102C011241FBECFEFD4E0DEBFD6
:10011000CDBF11E0A0E0B1E0E4EDFFE002C005904A
:100120000D92A432B107D9F721E0A4E2B1E001C0F9
:100130001D92A933B207E1F74BD04AC761CF0895AA
:10014000089580E091E057D6E2EEF0E0808184608F
:100150008083089580E091E01CC580910E0190910C
:100160000F01009729F0019790930F0180930E01E2
:1001700008950F931F9388E090E0F80191838083A6
:1001800080E01F910F910895209A289A84B186608B
:1001900084B923982B9A8DB581608DBD209881E517
:1001A0008CBD089584B7877F84BF88E10FB6F8942B
:1001B00080936000109260000FBE90E080E80FB660
:1001C000F89480936100909361000FBEC1D2DCCFA0
:1001D000E9DF789480E091E021D6BFD4FBCF813075
:1001E000910531F48AE18A95F1F700C0289A0895C3
:1001F000892B29F428988AE18A95F1F700C008959F
:100200000F931F93F901A0E1B1E0005F1E4FA0170B
:10021000B10719F081918D93FACF80E090E0DFDF94
:10022000809110018EBD0DB407FEFDCF80911101AC
:100230008EBD0DB407FEFDCF81E090E01F910F91C0
:10024000CECF292F332723303105B9F05CF421308C
:10025000310569F12230310579F582E290E022EB37
:1002600030E02EC021323105E9F02232310521F58E
:1002700080E290E026EE30E023C09927813091059E
:1002800041F08230910541F0892BB1F4EEEAF0E0C3
:1002900005C0E6E9F0E002C0E4E7F0E0849190E018
:1002A0009F010EC089E090E024EC30E009C082E1BB
:1002B00090E024ED30E004C080E090E020E030E009
:1002C000FA01318320830895CF92DF92EF92FF925B
:1002D0000F931F93CF93DF937C018B01EA01CFD162
:1002E000811131C0209731F088819981081B190B49
:1002F000E80EF91EC12CD12C0115110519F18091C0
:10030000E80085FD14C08091E8008E778093E800B6
:1003100024D4209741F0888199818C0D9D1D99836B
:10032000888385E010C0ABD1882331F30CC0F7017E
:1003300081917F018093F10001501109FFEFCF1AE5
:10034000DF0ADACF80E0DF91CF911F910F91FF900C
:10035000EF90DF90CF9008952091370130913801D0
:100360002617370748F06115710539F42091E80028
:100370002E772093E80001C0B90120E061157105D6
:10038000D1F130913001332309F443C0353009F401
:1003900042C03091E80033FD40C03091E80032FFA8
:1003A00006C08091E80082FF29C080E00895309166
:1003B000E80030FFE3CF2091F20030E0FC01281B81
:1003C000390BCF01820F931F6115710549F08830F9
:1003D000910530F481918093F10061507109F1CF62
:1003E00021E0089709F020E08091E8008E77809363
:1003F000E800CF01C3CF2111C4CFD3CF809130010A
:10040000882339F0853039F08091E80083FFC9CF27
:1004100004C082E0089583E0089581E008956115A5
:10042000710529F42091E8002B772093E8006115ED
:10043000710511F120913001222339F1253039F174
:100440002091E80023FD1DC02091E80022FFF2CF9B
:10045000FC01CF012091F200222321F38091F100D1
:100460008193CF0161507109A1F7DCCF80913001F8
:10047000882359F0853059F08091E80080FFF6CF4D
:1004800002C081E0089580E0089582E0089583E04D
:10049000089520913701309138012617370748F029
:1004A0006115710539F42091E8002E772093E8005A
:1004B00001C0B90120E061157105D9F13091300119
:1004C000332309F444C0353009F443C03091E800C7
:1004D00033FD41C03091E80032FF06C08091E80052
:1004E00082FF2AC080E008953091E80030FFE3CF1A
:1004F0002091F20030E0FC01281B390BC9018E0F5E
:100500009F1F6115710551F08830910538F4849171
:100510008093F100319661507109F0CF21E0089786
:1005200009F020E08091E8008E778093E800CF0109
:10053000C2CF2111C3CFD2CF80913001882339F0AF
:10054000853039F08091E80083FFC8CF04C082E095
:10055000089583E0089581E00895982F953058F527
:100560009093E900981739F07091EC002091ED001C
:100570005091F00003C0242F762F50E021FF19C0C6
:100580003091EB003E7F3093EB003091ED003D7FEA
:100590003093ED003091EB0031603093EB007093BD
:1005A000EC002093ED005093F0002091EE0027FF27
:1005B00007C09F5FD3CF8F708093E90081E00895DB
:1005C00080E008950F931F93CF93DF93062FEC01E4
:1005D00010E0101769F19881992339F12C81E98194
:1005E000FA816B81892F8F70853010F080E021C0F7
:1005F000223010F056E001C052E028E030E040E048
:100600002E173F0720F44F5F220F331FF9CF42957B
:10061000407F452B991F9927991F6295660F660F9A
:10062000607C692B9ADF882309F31F5F2596D1CF61
:1006300081E0DF91CF911F910F9108958091310159
:1006400087FD05C08091E80080FF0EC012C0809138
:10065000E80082FD05C0809130018111F8CF089536
:100660008091E8008B7708C0809130018111EACF3A
:1006700008958091E8008E778093E8000895809136
:10068000E4009091E50045E62091EC0020FF21C0B8
:100690002091E80020FD21C020913001222389F023
:1006A000253089F02091EB0025FD0FC02091E4005A
:1006B0003091E5002817390739F3415041F0C9015D
:1006C000E3CF82E0089583E0089581E0089584E017
:1006D00008952091E80022FFDFCF80E0089541D007
:1006E00043D08091D8008F778093D8008091D80034
:1006F00080688093D8008091D8008F7D8093D80047
:1007000084E089BD86E089BD09B400FEFDCF10926A
:10071000300110922C0110922E0110922D0142E016
:1007200060E080E01ADF8091E1008E7F8093E1003D
:100730008091E20081608093E2008091E200886015
:100740008093E2008091E0008E7F8093E000089526
:10075000E3E6F0E080818E7F808381E080932F014B
:10076000BECF1092E20008951092E10008951F920A
:100770000F920FB60F9211242F933F934F935F93D5
:100780006F937F938F939F93AF93BF93EF93FF9359
:100790008091E10082FF0AC08091E20082FF06C0E2
:1007A0008091E1008B7F8093E100D7DC8091E100B4
:1007B00080FF17C08091E20080FF13C08091E200AB
:1007C0008E7F8093E2008091E20080618093E2005E
:1007D0008091D80080628093D80019BC10923001BB
:1007E000AFDC8091E10084FF2FC08091E20084FFA4
:1007F0002BC084E089BD86E089BD09B400FEFDCF31
:100800008091D8008F7D8093D8008091E1008F7E09
:100810008093E1008091E2008F7E8093E2008091DE
:10082000E20081608093E20080912C01882311F026
:1008300084E007C08091E30087FF02C083E001C02D
:1008400081E0809330017BDC8091E10083FF22C056
:100850008091E20083FF1EC08091E100877F80933A
:10086000E10082E08093300110922C018091E10040
:100870008E7F8093E1008091E2008E7F8093E20082
:100880008091E20080618093E20042E060E080E0DD
:1008900064DE62D1FF91EF91BF91AF919F918F91F3
:1008A0007F916F915F914F913F912F910F900FBE6C
:1008B0000F901F9018951F93CF93DF93CDB7DEB79E
:1008C000AA970FB6F894DEBF0FBECDBFE1E3F1E00B
:1008D0008091F100819321E0E933F207C9F73ADC16
:1008E0008091E80083FF20C1909131018091320115
:1008F000853009F477C030F4813081F168F08330BD
:1009000069F112C1883009F4E1C0893009F4F0C0FE
:10091000863009F009C188C0903881F0923809F01A
:1009200003C1809135018F708093E9008091EB00C5
:1009300085FB882780F91092E90006C080912D017F
:1009400090912E01911182609091E800977F909391
:10095000E8008093F1001092F100C3C0292F2D7F91
:1009600009F0E2C0992319F0923061F0DDC0909156
:100970003301913009F0D8C0833009F090E09093B2
:100980002E012AC090913301911126C0209135018A
:100990002F7009F4C9C02093E9009091EB0090FFFB
:1009A0001BC0833021F48091EB00806213C08091E2
:1009B000EB0080618093EB0081E090E0022E01C0AB
:1009C000880F0A94EAF78093EA001092EA00809177
:1009D000EB0088608093EB001092E9008091E800C2
:1009E000877F82C09111A0C0109133011F77809141
:1009F000E3008078812B8093E3008091E800877F7B
:100A00008093E8001BDE8091E80080FFFCCF80919E
:100A1000E30080688093E300112311F083E001C0BC
:100A200082E08093300180C09058923008F07CC002
:100A300080913301909134018C3D23E0920771F550
:100A400083E08A838AE289834FB7F894DE011396A4
:100A500020E03EE051E2E32FF0E050935700E491B4
:100A600020FF03C0E295EF703F5FEF708E2F90E0A4
:100A7000EA3010F0C79601C0C0968D939D932F5F0A
:100A8000243149F74FBF8091E800877F8093E800C9
:100A90006AE270E0CE0101965FDC12C0AE014F5FEA
:100AA0005F4F60913501CDDB009709F43DC0209187
:100AB000E800277F2093E800BC0189819A81E9DC66
:100AC0008091E8008B778093E8002EC0903861F524
:100AD0008091E800877F8093E80080912C018093CB
:100AE000F1008091E8008E778093E800A7DD1CC0BC
:100AF00091111AC0909133019230B0F48091E800C6
:100B0000877F8093E80090932C0198DD80912C01E1
:100B1000811104C08091E30087FF02C084E001C01E
:100B200081E0809330010DDB8091E80083FF0AC0F3
:100B30008091E800877F8093E8008091EB008062DD
:100B40008093EB00AA960FB6F894DEBF0FBECDBF20
:100B5000DF91CF911F9108950895CF938091300137
:100B60008823A9F08091E9008F709091EC0090FFAC
:100B700002C090E801C090E0C92FC82B1092E90094
:100B80008091E80083FD97DECF70C093E900CF919C
:100B900008956F927F928F929F92AF92BF92CF9261
:100BA000DF92EF92FF920F931F93CF93DF9300D0CA
:100BB0001F92CDB7DEB77C01ADB6BEB68091E8001E
:100BC00083FF02C1F701808190E0209135013091CF
:100BD00036012817390709F0F7C0809132018330B8
:100BE00009F499C030F4813071F0823009F4D0C03A
:100BF000EBC08A3009F4B4C08B3009F49DC0893051
:100C000009F0E2C04BC080913101813A09F0DCC0AB
:100C10008DB69EB61A8219828091330110913401EB
:100C20008B83F701408550E08DB79EB7841B950BF1
:100C30000FB6F8949EBF0FBE8DBFEDB7FEB73196CD
:100C40006F0160E070E0CF01BCD14FEF410F8E012A
:100C50000F5F1F4F9601BE016D5F7F4FC70189DA9D
:100C6000F70186819781009721F0408550E0B60119
:100C70009FD11092E9008091E800877F8093E8007F
:100C80008B8181118093F10069817A81C60164DBD7
:100C90008091E8008B778093E80037C08091310124
:100CA000813209F091C08DB69EB600913701109146
:100CB000380170903301609034018DB79EB7801B6E
:100CC000910B0FB6F8949EBF0FBE8DBFEDB7FEB768
:100CD00031966F018091E800877F8093E800B8012A
:100CE000CF019DDB8091E8008E778093E80021E0C2
:100CF000711001C020E030E0021B130B2C0D3D1DD4
:100D00004FEF460D672DC7017BDA0FB6F8949EBEF4
:100D10000FBE8DBE59C080913101813A09F054C097
:100D20008091E800877F8093E8008091E80080FF51
:100D3000FCCFF701818540C080913101813209F0FB
:100D400043C08091E800877F8093E80077DC909132
:100D5000330181E0911101C080E0F701818734C047
:100D600080913101813281F58091E800877F809305
:100D7000E80064DC8091330190913401882736E0EB
:100D8000969587953A95E1F7F701958784871CC07A
:100D900080913101813AC1F48091E800877F80938E
:100DA000E8008091E80080FFFCCFF70184859585FD
:100DB00096958795969587958093F1008091E800A8
:100DC0008E778093E8003ADC0FB6F894BEBE0FBE73
:100DD000ADBE0F900F900F90DF91CF911F910F91AB
:100DE000FF90EF90DF90CF90BF90AF909F908F904B
:100DF0007F906F900895FC01399627E0DF011D92E6
:100E00002A95E9F721E0FC01218724EF31E03587BD
:100E1000248723E0248361E00196D4CB5F926F9214
:100E20007F928F929F92AF92BF92CF92DF92EF927A
:100E3000FF920F931F93CF93DF9300D01F92CDB7F4
:100E4000DEB77C01ADB6BEB680913001843009F0CA
:100E50008AC08091E4009091E500F70122853385F6
:100E60002817390709F47FC081818F708093E900CA
:100E70008091E80085FF77C08DB69EB6408550E032
:100E80008DB79EB7841B950B0FB6F8949EBF0FBE0F
:100E90008DBFEDB7FEB731966F011B821A821982A2
:100EA00060E070E0CF018DD08E010F5F1F4F960183
:100EB00040E0BE016D5F7F4FC7015BD9682EF7012F
:100EC00084859585892B41F021E086859785892B3E
:100ED00009F020E0722E01C0712CF7010681178104
:100EE0000115110589F049815A81B801C60153D015
:100EF00055245394892B09F4512CF701408550E077
:100F0000B601C80155D001C0512C29813A81232B4B
:100F1000F1F0611004C0511002C070FE18C0F7015A
:100F2000848595859787868781818F708093E90076
:100F30008B8181118093F10069817A8140E050E0DA
:100F4000C601C2D98091E8008E778093E800809135
:100F5000E4009091E500F701938782870FB6F8943B
:100F60009EBE0FBE8DBE0FB6F894BEBE0FBEADBE08
:100F70000F900F900F90DF91CF911F910F91FF90E5
:100F8000EF90DF90CF90BF90AF909F908F907F9029
:100F90006F905F900895FB01DC0104C08D9101907A
:100FA000801921F441505040C8F7881B990B0895CF
:100FB000FB01DC0102C001900D9241505040D8F776
:100FC0000895DC0101C06D9341505040E0F7089551
:040FD000F894FFCFC3
:100FD4000081080000012401080000000000000056
:100FE4000000F352C80000000000000000000000F0
:040FF40000000000F9
:00000001FF
