:1000000039C0000052C0000050C000004EC00000C7
:100010004CC000004AC0000048C0000046C00000BC
:1000200044C0000042C0000040C000005CC10000AD
:100030003CC000003AC0000038C0000036C00000DC
:1000400034C0000032C0000030C000002EC00000EC
:100050002CC000002AC0000028C0000026C00000FC
:1000600024C0000022C0000020C000001EC000000C
:100070001CC0000011241FBECFEFD4E0DEBFCDBFF7
:1000800011E0A0E0B1E0E4E3F4E002C005900D92DD
:10009000A432B107D9F711E0A4E2B1E001C01D928A
:1000A000A933B107E1F793D0C3C1AACF089508954A
:1000B00080910E0190910F01009729F00197909384
:1000C0000F0180930E010895209A289A84B18660CA
:1000D00084B9239885B18A6085B98DB58E7F8DBD31
:1000E00085E58CBD089584B7877F84BF88E10FB60E
:1000F000F89480936000109260000FBE90E080E85A
:100100000FB6F89480936100909361000FBEDCD02D
:10011000DBDF88E38AB90895299A85E08A95F1F7AB
:100120000000289885E08A95F1F7000080E28EBDF6
:100130000DB407FEFDCF82E08EBD0DB407FEFDCFEE
:1001400085E08A95F1F70000289A85E08A95F1F715
:100150000000299A299A85E08A95F1F700002898ED
:1001600085E08A95F1F7000080E48EBD0DB407FEAE
:10017000FDCF81E08EBD0DB407FEFDCF85E08A95F1
:10018000F1F70000289A85E08A95F1F70000299A96
:10019000299A85E08A95F1F70000289885E08A95EC
:1001A000F1F7000089E48EBD0DB407FEFDCF86E6B1
:1001B0008EBD0DB407FEFDCF85E08A95F1F70000F6
:1001C000289A85E08A95F1F70000299A08958BDF37
:1001D000789488E38BB9A0DF2FEF83E294EF21506E
:1001E00080409040E1F700C00000F5CF982F953097
:1001F00058F59093E900981739F07091EC00209130
:10020000ED005091F00003C0242F762F50E021FF25
:1002100019C03091EB003E7F3093EB003091ED0040
:100220003D7F3093ED003091EB0031603093EB0077
:100230007093EC002093ED005093F0002091EE00BD
:1002400027FF07C09F5FD3CF8F708093E90081E0C5
:10025000089580E0089541D043D08091D8008F77F1
:100260008093D8008091D80080688093D8008091D6
:10027000D8008F7D8093D80084E089BD86E089BD59
:1002800009B400FEFDCF1092300110922C011092A3
:100290002E0110922D0142E060E080E0A7DF809106
:1002A000E1008E7F8093E1008091E2008160809385
:1002B000E2008091E20088608093E2008091E0009B
:1002C0008E7F8093E0000895E3E6F0E080818E7FEA
:1002D000808381E080932F01BECF1092E2000895C9
:1002E0001092E10008951F920F920FB60F92112401
:1002F0002F933F934F935F936F937F938F939F932E
:10030000AF93BF93EF93FF938091E10082FF0AC008
:100310008091E20082FF06C08091E1008B7F809394
:10032000E100C6DE8091E10080FF17C08091E2000D
:1003300080FF13C08091E2008E7F8093E200809165
:10034000E20080618093E2008091D8008062809317
:10035000D80019BC10923001AADE8091E10084FF20
:100360002FC08091E20084FF2BC084E089BD86E02D
:1003700089BD09B400FEFDCF8091D8008F7D8093A8
:10038000D8008091E1008F7E8093E1008091E200AF
:100390008F7E8093E2008091E20081608093E20092
:1003A00080912C01882311F084E007C08091E30044
:1003B00087FD02C081E001C083E08093300176DEDA
:1003C0008091E10083FF22C08091E20083FF1EC084
:1003D0008091E100877F8093E10082E0809330018B
:1003E00010922C018091E1008E7F8093E10080913A
:1003F000E2008E7F8093E2008091E2008061809332
:10040000E20042E060E080E0F1DE11D0FF91EF9188
:10041000BF91AF919F918F917F916F915F914F911C
:100420003F912F910F900FBE0F901F901895089538
:04043000F894FFCF6E
:100434000081080000012401080000000000000001
:100444002000400069F100000000000000000000EE
:0404540000000000A4
:00000001FF
