:100000009EC00000B8C00000B6C00000B4C0000030
:10001000B2C00000B0C00000AEC00000ACC0000024
:10002000AAC00000A8C000004AC40000A4C000008C
:10003000A2C00000A0C000009EC000009CC0000044
:100040009AC0000098C0000096C0000094C0000054
:1000500092C0000090C000008EC000008CC0000064
:100060008AC0000088C0000086C0000084C0000074
:1000700082C0000080C000007EC000007CC0000084
:100080007AC0000078C0000076C0000074C0000094
:1000900072C0000070C000006EC000006CC00000A4
:1000A0006AC0000068C0000066C000002003530062
:1000B000690067006E0061006C00670065006E00FB
:1000C00065007200610074006F007200000016038A
:1000D0004C006100620043006F006E006E0065001E
:1000E00063007400000004030904090222000101F6
:1000F00000C03209040000010300000009211101C1
:1001000000012220000705810308000512011001EB
:10011000000000080912222201000102000106006D
:10012000FF0901A1010902150025FF750895088145
:10013000020903150025FF750895089102C01124D6
:100140001FBECFEFDAE0DEBFCDBF11E0A0E0B1E02F
:10015000E2E3F2E102C005900D92A832B107D9F7AF
:1001600021E0A8E2B1E001C01D92AF33B207E1F790
:10017000CED00C94170944CF0895089580E091E003
:1001800004D7E2EEF0E0808184608083089580E00F
:1001900091E0C9C580910E0190910F01009729F05F
:1001A000019790930F0180930E0108950F931F9371
:1001B00088E090E0F8019183808380E01F910F91A7
:1001C00008951F93CF93DF93809126018BB980917F
:1001D0001D0190911C01289825E02A95F1F7000057
:1001E0009EBD0DB407FEFDCF8EBD0DB407FEFDCF45
:1001F00085E08A95F1F70000289A80911F0190917F
:100200001E01289825E02A95F1F700009EBD0DB447
:1002100007FEFDCF8EBD0DB407FEFDCF85E08A95AC
:10022000F1F70000289A80912101909120012898EF
:1002300025E02A95F1F700009EBD0DB407FEFDCF25
:100240008EBD0DB407FEFDCF85E08A95F1F7000065
:10025000289A61E082E169D7811116C081E080931C
:100260002801C2E2D1E010E0812F8061B2D78991EC
:10027000B0D71F5F1430C1F788E7ABD781E0A9D7AB
:1002800084E98093BC0002C010922801DF91CF91D5
:100290001F91089584B7877F84BF88E10FB6F894D3
:1002A00080936000109260000FBE90E080E80FB66F
:1002B000F89480936100909361000FBEE3D2209A7E
:1002C000289A84B1866084B9239885B18A6085B9FB
:1002D0008DB581608DBD8AE58CBD8091BC00846048
:1002E0008093BC001092B90080E28093B8008091A6
:1002F0002901882359F0E0E1F1E0ACE1B1E081911E
:100300008D9381E0EC31F807D1F75BCF0895C2DF20
:10031000789480E091E04CD6EAD4FBCFECE1F1E0B8
:10032000D9018D919D018193B1E0E832FB07C1F7BE
:1003300048DF80912701982F907F903121F491E040
:100340009093290102C0109229018F70813051F4DD
:10035000A0E1B1E0ECE1F1E081918D9381E0E83240
:10036000F807D1F70895292F332723303105B9F045
:100370005CF42130310569F12230310579F582E2F2
:1003800090E02AEE30E02EC021323105E9F0223231
:10039000310521F580E290E02EE131E023C099277C
:1003A0008130910541F08230910541F0892BB1F403
:1003B000E6EEF0E005C0EEECF0E002C0ECEAF0E0C2
:1003C000849190E09F010EC089E090E02CEF30E036
:1003D00009C082E190E02CE031E004C080E090E0D0
:1003E00020E030E0FA01318320830895CF92DF923C
:1003F000EF92FF920F931F93CF93DF937C018B01BA
:10040000EA01D0D1811131C0209731F088819981E2
:10041000081B190BE80EF91EC12CD12C0115110572
:1004200019F18091E80085FD14C08091E8008E7775
:100430008093E8005CD4209741F0888199818C0DED
:100440009D1D9983888385E010C0ACD1882331F34A
:100450000CC0F70181917F018093F10001501109D7
:10046000FFEFCF1ADF0ADACF80E0DF91CF911F9143
:100470000F91FF90EF90DF90CF90089520913D0174
:1004800030913E012617370748F06115710539F4A0
:100490002091E8002E772093E80001C0B901FC010B
:1004A00020E061157105B9F180913601882309F4C6
:1004B00040C0853009F43FC08091E80083FD3DC015
:1004C0008091E80082FF06C08091E80082FF26C08C
:1004D00080E008958091E80080FFE3CF2091F30051
:1004E0008091F20090E0922B6115710551F08830F7
:1004F000910538F421912093F10061507109019622
:10050000F3CF21E0089709F020E08091E8008E7792
:100510008093E800C6CF2111C7CFD6CF8091360196
:10052000882339F0853039F08091E80083FFCCCF03
:1005300004C082E0089583E0089581E00895611584
:10054000710529F42091E8002B772093E8006115CC
:10055000710531F120913601222359F1253059F1ED
:100560002091E80023FD21C02091E80022FFF2CF76
:10057000FC01CF014091F3002091F20030E0342BD8
:10058000232B01F38091F1008193CF016150710918
:1005900081F7D8CF80913601882359F0853059F002
:1005A0008091E80080FFF6CF02C081E0089580E0EE
:1005B000089582E0089583E0089520913D013091EF
:1005C0003E012617370748F06115710539F420916F
:1005D000E8002E772093E80001C0B901FC0120E07B
:1005E00061157105C1F180913601882309F441C07C
:1005F000853009F440C08091E80083FD3EC08091C1
:10060000E80082FF06C08091E80082FF27C080E0FA
:1006100008958091E80080FFE3CF2091F30080915E
:10062000F20090E0922B6115710559F08830910528
:1006300040F424912093F1003196615071090196A4
:10064000F2CF21E0089709F020E08091E8008E7752
:100650008093E800C5CF2111C6CFD5CF8091360158
:10066000882339F0853039F08091E80083FFCBCFC3
:1006700004C082E0089583E0089581E00895982FF2
:10068000973058F59093E900981739F07091EC0085
:100690002091ED005091F00003C0242F762F50E000
:1006A00021FF19C03091EB003E7F3093EB00309179
:1006B000ED003D7F3093ED003091EB0031603093E1
:1006C000EB007093EC002093ED005093F00020912C
:1006D000EE0027FF07C09F5FD3CF8F708093E900A4
:1006E00081E0089580E008950F931F93CF93DF93E7
:1006F000062FEC0110E0101771F19881992341F158
:100700002C81E981FA817B81892F8F70873010F0ED
:1007100080E022C0223010F056E001C052E028E014
:1007200030E040E02E173F0720F44F5F220F331FC9
:10073000F9CF4295407F452B692F661F6627661FBC
:1007400090E4799F90011124622B99DF882301F3B3
:100750001F5F2596D0CF81E0DF91CF911F910F9140
:1007600008958091370187FD05C08091E80080FFE2
:100770000EC012C08091E80082FD05C08091360154
:100780008111F8CF08958091E8008B7708C080919F
:1007900036018111EACF08958091E8008E77809329
:1007A000E80008958091E4009091E50045E62091ED
:1007B000EC0020FF21C02091E80020FD21C0209105
:1007C0003601222389F0253089F02091EB0025FDA8
:1007D0000FC02091E4003091E5002817390739F364
:1007E000415041F0C901E3CF82E0089583E00895CC
:1007F00081E0089584E008952091E80022FFDFCF92
:1008000080E008950F931F93CF93DF934BD052D086
:10081000C8EDD0E088818F7788838881806888835D
:1008200088818F7D888319BC109236011092320125
:10083000109234011092330100EE10E0F801808133
:100840008B7F808388818160888342E060E080E0E4
:1008500016DFE1EEF0E080818E7F8083E2EEF0E053
:10086000808181608083808188608083F8018081BD
:100870008E7F8083888180618883DF91CF911F91F3
:100880000F910895E8EDF0E080818F7E8083E7EDA1
:10089000F0E080818160808384E082BF81E080938A
:1008A0003501B0CFE8EDF0E080818E7F808310923B
:1008B000E20008951092DA001092E10008951F926C
:1008C0000F920FB60F9211242F933F934F935F9384
:1008D0006F937F938F939F93AF93BF93EF93FF9308
:1008E0008091E10082FF0AC08091E20082FF06C091
:1008F0008091E1008B7F8093E1004CDC8091DA00F5
:1009000080FF1DC08091D80080FF19C08091DA005F
:100910008E7F8093DA008091D90080FF0CC080E147
:1009200089BD82E189BD09B400FEFDCF81E08093DD
:10093000360122DC04C019BC109236011EDC809105
:10094000E10080FF18C08091E20080FF14C0809118
:10095000E2008E7F8093E2008091E20080618093CC
:10096000E2008091D80080628093D80019BC85E0B5
:1009700080933601BBD18091E10084FF2FC080912C
:10098000E20084FF2BC080E189BD82E189BD09B40A
:1009900000FEFDCF8091D8008F7D8093D80080919C
:1009A000E1008F7E8093E1008091E2008F7E809352
:1009B000E2008091E20081608093E2008091320148
:1009C000882311F084E007C08091E30087FF02C014
:1009D00083E001C081E08093360188D18091E100FD
:1009E00083FF22C08091E20083FF1EC08091E1005E
:1009F000877F8093E10082E080933601109232017C
:100A00008091E1008E7F8093E1008091E2008E7FF3
:100A10008093E2008091E20080618093E20042E0F6
:100A200060E080E02CDE62D1FF91EF91BF91AF9149
:100A30009F918F917F916F915F914F913F912F91F6
:100A40000F900FBE0F901F9018951F93CF93DF93B9
:100A5000CDB7DEB7AA970FB6F894DEBF0FBECDBFF5
:100A6000E7E3F1E08091F100819321E0EF33F207B9
:100A7000C9F78DDB8091E80083FF20C19091370199
:100A800080913801853009F477C030F4813081F1EC
:100A900068F0833069F112C1883009F4E1C089300F
:100AA00009F4F0C0863009F009C188C0903881F09F
:100AB000923809F003C180913B018F708093E90067
:100AC0008091EB0085FB882780F91092E90006C031
:100AD0008091330190913401911182609091E800EE
:100AE000977F9093E8008093F1001092F100C3C0CB
:100AF000292F2D7F09F0E2C0992319F0923061F07F
:100B0000DDC090913901913009F0D8C0833009F0EF
:100B100090E0909334012AC090913901911126C040
:100B200020913B012F7009F4C9C02093E9009091F6
:100B3000EB0090FF1BC0833021F48091EB008062BA
:100B400013C08091EB0080618093EB0081E090E026
:100B5000022E01C0880F0A94EAF78093EA001092EF
:100B6000EA008091EB0088608093EB001092E9002E
:100B70008091E800877F82C09111A0C01091390157
:100B80001F778091E3008078812B8093E300809130
:100B9000E800877F8093E800E4DD8091E80080FF33
:100BA000FCCF8091E30080688093E300112311F073
:100BB00083E001C082E08093360180C0905892307B
:100BC00008F07CC08091390190913A018C3D23E07E
:100BD000920771F583E08A838AE289834FB7F8949C
:100BE000DE01139620E03EE051E2E32FF0E0509367
:100BF0005700E49120FF03C0E295EF703F5FEF7074
:100C00008E2F90E0EA3010F0C79601C0C0968D9309
:100C10009D932F5F243149F74FBF8091E800877F74
:100C20008093E8006AE270E0CE01019627DC12C0F2
:100C3000AE014F5F5F4F60913B0195DB009709F478
:100C40003DC02091E800277F2093E800BC01898106
:100C50009A81B3DC8091E8008B778093E8002EC006
:100C6000903861F58091E800877F8093E80080915B
:100C700032018093F1008091E8008E778093E80044
:100C800070DD1CC091111AC0909139019230B0F4FE
:100C90008091E800877F8093E8009093320161DDC6
:100CA00080913201811104C08091E30087FF02C06E
:100CB00084E001C081E08093360160DA8091E80031
:100CC00083FF0AC08091E800877F8093E8008091CD
:100CD000EB0080628093EB00AA960FB6F894DEBF1B
:100CE0000FBECDBFDF91CF911F9108950895CF938F
:100CF000809136018823A9F08091E9008F7090914E
:100D0000EC0090FF02C090E801C090E0C92FC82B12
:100D10001092E9008091E80083FD97DECF70C093C8
:100D2000E900CF9108956F927F928F929F92AF9238
:100D3000BF92CF92DF92EF92FF920F931F93CF93C8
:100D4000DF9300D01F92CDB7DEB77C01ADB6BEB643
:100D50008091E80083FF02C1F701808190E020913B
:100D60003B0130913C012817390709F0F7C0809109
:100D70003801833009F499C030F4813071F0823049
:100D800009F4D0C0EBC08A3009F4B4C08B3009F448
:100D90009DC0893009F0E2C04BC080913701813A93
:100DA00009F0DCC08DB69EB61A8219828091390195
:100DB00010913A018B83F701408550E08DB79EB7C3
:100DC000841B950B0FB6F8949EBF0FBE8DBFEDB779
:100DD000FEB731966F0160E070E0CF0121D24FEF96
:100DE000410F8E010F5F1F4F9601BE016D5F7F4F58
:100DF000C701DCD9F70186819781009721F04085F2
:100E000050E0B60104D21092E9008091E800877F9B
:100E10008093E8008B8181118093F10069817A8150
:100E2000C6012CDB8091E8008B778093E80037C007
:100E300080913701813209F091C08DB69EB6009144
:100E40003D0110913E017090390160903A018DB7DB
:100E50009EB7801B910B0FB6F8949EBF0FBE8DBF3F
:100E6000EDB7FEB731966F018091E800877F8093E0
:100E7000E800B801CF0163DB8091E8008E778093B2
:100E8000E80021E0711001C020E030E0021B130BEC
:100E90002C0D3D1D4FEF460D672DC7013FDA0FB6F4
:100EA000F8949EBE0FBE8DBE59C080913701813A25
:100EB00009F054C08091E800877F8093E80080911A
:100EC000E80080FFFCCFF701818540C080913701A9
:100ED000813209F043C08091E800877F8093E80069
:100EE00040DC9091390181E0911101C080E0F7016F
:100EF000818734C080913701813281F58091E8008B
:100F0000877F8093E8002DDC8091390190913A0130
:100F1000882736E0969587953A95E1F7F70195870A
:100F200084871CC080913701813AC1F48091E80028
:100F3000877F8093E8008091E80080FFFCCFF70175
:100F40008485958596958795969587958093F100EC
:100F50008091E8008E778093E80003DC0FB6F89468
:100F6000BEBE0FBEADBE0F900F900F90DF91CF9120
:100F70001F910F91FF90EF90DF90CF90BF90AF90B7
:100F80009F908F907F906F900895FC01399627E095
:100F9000DF011D922A95E9F721E0FC01218724EF6A
:100FA00031E03587248723E0248361E001969CCBE0
:100FB0005F926F927F928F929F92AF92BF92CF92E9
:100FC000DF92EF92FF920F931F93CF93DF9300D0A6
:100FD0001F92CDB7DEB77C01ADB6BEB680913601AB
:100FE000843009F08AC08091E4009091E500F70117
:100FF000228533852817390709F47FC081818F70D6
:101000008093E9008091E80085FF77C08DB69EB699
:10101000408550E08DB79EB7841B950B0FB6F894B2
:101020009EBF0FBE8DBFEDB7FEB731966F011B821D
:101030001A82198260E070E0CF01F2D08E010F5F5A
:101040001F4F960140E0BE016D5F7F4FC701AED8D4
:10105000682EF70184859585892B41F021E08685EE
:101060009785892B09F020E0722E01C0712CF701C1
:10107000068117810115110589F049815A81B8014E
:10108000C601B8D055245394892B09F4512CF7018B
:10109000408550E0B601C801BAD001C0512C298169
:1010A0003A81232BF1F0611004C0511002C070FE90
:1010B00018C0F701848595859787868781818F7011
:1010C0008093E9008B8181118093F10069817A819D
:1010D00040E050E0C6018AD98091E8008E77809385
:1010E000E8008091E4009091E500F7019387828702
:1010F0000FB6F8949EBE0FBE8DBE0FB6F894BEBE5E
:101100000FBEADBE0F900F900F90DF91CF911F914A
:101110000F91FF90EF90DF90CF90BF90AF909F9096
:101120008F907F906F905F90089594EA9093BC00A9
:1011300094E6699FB00111249B0140E054EA211517
:101140003105F9F0411122C09091BC0097FF12C007
:101150009091B900987F903161F0983339F09830D0
:1011600041F084E08093BC0081E008955093BC007E
:10117000E6CF41E095E39A95F1F70000215031095F
:10118000DECF84E08093BC0082E008958093BB00B2
:1011900084E88093BC006115710559F08091BC0012
:1011A00087FD09C085E38A95F1F700006150710958
:1011B000F2CF83E008958091B900887F883111F4DF
:1011C00080E008958034E1F384E98093BC0084E0FA
:1011D00008958093BB0084E88093BC008091BC009C
:1011E00087FFFCCF9091B900987F81E0983209F099
:1011F00080E00895FB01DC0104C08D91019080190D
:1012000021F441505040C8F7881B990B0895FB0109
:10121000DC0102C001900D9241505040D8F7089572
:10122000DC0101C06D9341505040E0F70895F894FF
:02123000FFCFEE
:101232000081080000012A010800000000000000EF
:101242002000400069F10000000018112000400059
:0812520069F100000000181111
:00000001FF
