:100000009EC00000B8C00000B6C00000B4C0000030
:10001000B2C00000B0C00000AEC00000ACC0000024
:10002000AAC00000A8C00000BFC40000A4C0000017
:10003000A2C00000A0C000009EC000009CC0000044
:100040009AC0000098C0000096C0000094C0000054
:1000500092C0000090C000008EC000008CC0000064
:100060008AC0000088C0000086C0000084C0000074
:1000700082C0000080C000007EC000007CC0000084
:100080007AC0000078C0000076C0000074C0000094
:1000900072C0000070C000006EC000006CC00000A4
:1000A0006AC0000068C0000066C000002003530062
:1000B000690067006E0061006C00670065006E00FB
:1000C00065007200610074006F007200000016038A
:1000D0004C006100620043006F006E006E0065001E
:1000E00063007400000004030904090222000101F6
:1000F00000C03209040000010300000009211101C1
:1001000000012220000705810308000512011001EB
:10011000000000080912222201000102000106006D
:10012000FF0901A1010902150025FF750895088145
:10013000020903150025FF750895089102C01124D6
:100140001FBECFEFDAE0DEBFCDBF11E0A0E0B1E02F
:10015000E4E6F3E102C005900D92A632B107D9F7AB
:1001600011E0A6E2B1E001C01D92A635B107E1F7AA
:100170000DD10C94B00944CF0895089580E091E02A
:100180007ED7E2EEF0E0808184608083089580E095
:1001900091E03DC680910E0190910F01009729F0EA
:1001A000019790930F0180930E0108950F931F9371
:1001B00088E090E0F8019183808380E01F910F91A7
:1001C0000895E5E3F1E093E1908381838283838363
:1001D00084838583089580912801853511F082E01C
:1001E000F0CF80E180933501E0E1F1E0A6E3B1E0FA
:1001F00081918D9381E0EA31F807D1F7089582E18A
:1002000080933501EAE1F1E0A6E3B1E081918D93BD
:1002100081E0E432F807D1F70895CF93DF9380911E
:1002200024018BB980911B0190911A01289825E037
:100230002A95F1F700009EBD0DB407FEFDCF8EBDDF
:100240000DB407FEFDCF85E08A95F1F70000289AEE
:1002500080911D0190911C01289825E02A95F1F7C5
:1002600000009EBD0DB407FEFDCF8EBD0DB407FE90
:10027000FDCF85E08A95F1F70000289A80911F0153
:1002800090911E01289825E02A95F1F700009EBD67
:100290000DB407FEFDCF8EBD0DB407FEFDCF85E08A
:1002A0008A95F1F70000289A61E082E1BDD78111BB
:1002B0001BC081E080932601C0E0D0E08C2F8061DC
:1002C0000E946809FE01E65EFE4F86810E94680971
:1002D0002196C430D10591F788E7FAD781E0F8D7A5
:1002E00084E98093BC0002C010922601DF91CF9177
:1002F00008950F931F93CF93DF9384B7877F84BFB5
:1003000088E10FB6F89480936000109260000FBEF1
:1003100090E080E80FB6F8948093610090936100BC
:100320000FBE25D3209A289A84B1866084B9239879
:1003300085B18A6085B98DB581608DBD8AE58CBD3A
:100340008091BC0084608093BC001092B90080E270
:100350008093B80085E090E0E9D7803191F40AE11C
:1003600011E0C4E1D0E0CE01E1D7F80181938F0123
:100370002196C032D105B9F7DF91CF911F910F912E
:100380004CCFDF91CF911F910F910895B2DF7894F8
:1003900080E091E087D621D5FBCF0F931F93CF93B9
:1003A000DF93A8E2B1E00AE111E0F8018D918193B9
:1003B00081E0E732F807D1F730DF8091260180FD38
:1003C0000CC08091260184FF14C060E185E090E0BC
:1003D000DF91CF911F910F91B1C7C4E1D0E0F80137
:1003E00061918F01CE01AAD72196C032D105B9F70C
:1003F000E8CFDF91CF911F910F910895E7E2F1E0EF
:10040000D9018D919D018193B1E0E333FB07C1F7E1
:1004100080912701813049F038F0823039F0833003
:1004200031F081E090E0CDCED6CEB7CFE8CE0895C2
:10043000292F332723303105E1F05CF421303105D9
:1004400099F02230310579F582E290E02AEE30E031
:100450002EC02132310511F12232310521F580E221
:1004600090E02EE131E023C082E190E02CE031E029
:100470001EC099278130910541F08230910541F0ED
:10048000892B89F4E6EEF0E005C0EEECF0E002C066
:10049000ECEAF0E0849190E09F0109C089E090E0EF
:1004A0002CEF30E004C080E090E020E030E0FA0182
:1004B000318320830895CF92DF92EF92FF920F93C2
:1004C0001F93CF93DF93EC018B017A01DED1811171
:1004D00033C0E114F10439F0F70180819181081BE8
:1004E000190BC80FD91FC12CD12C0115110519F1F9
:1004F0008091E80085FD16C08091E8008E7780939A
:10050000E8006BD4E114F10449F0F7018081918196
:10051000C80ED91ED182C08285E00EC0B6D1882314
:1005200021F30AC089918093F10001501109FFEF76
:10053000CF1ADF0ADACF80E0DF91CF911F910F91C0
:10054000FF90EF90DF90CF9008952091540130916B
:1005500055012617370748F06115710539F42091C8
:10056000E8002E772093E80001C0B90140E0611552
:100570007105A9F120914D01222309F443C02530D2
:1005800009F442C02091E80023FD40C02091E8001A
:1005900022FD32C02091E80020FFE9CF4091F30016
:1005A0002091F20030E0342BFC01CF016115710580
:1005B00059F02830310540F481918093F100615069
:1005C00071092F5F3F4FF1CF41E02830310509F02D
:1005D00040E02091E8002E772093E800C8CF411139
:1005E000C9CF0AC080914D01882361F0853061F048
:1005F0008091E80083FD0AC08091E80082FFF2CF7D
:1006000080E0089582E0089583E0089581E00895F0
:100610006115710529F42091E8002B772093E800FB
:10062000FC016115710541F180914D01882361F153
:10063000853061F18091E80083FD24C08091E8005D
:1006400082FFEFCF2091F3008091F20090E0922B97
:10065000892B31F08091F10081936150710991F7FC
:100660008091E8008B778093E800DBCF80914D018B
:10067000882351F0853051F08091E80080FFF6CF5B
:1006800080E0089581E0089582E0089583E0089570
:1006900020915401309155012617370748F0611514
:1006A000710539F42091E8002E772093E80001C00D
:1006B000B901FC0120E06115710591F180914D01B6
:1006C000882309F440C0853009F43FC08091E800D8
:1006D00083FD3DC08091E80082FD2FC08091E8003D
:1006E00080FFE9CF2091F3008091F20090E0922BFF
:1006F0006115710559F08830910540F424912093DB
:10070000F1003196615071090196F2CF21E008970E
:1007100009F020E08091E8008E778093E800CBCF4D
:100720002111CCCF0AC080914D01882361F0853022
:1007300061F08091E80083FD0AC08091E80082FFAB
:10074000F2CF80E0089582E0089583E0089581E08B
:100750000895982F973058F59093E900981739F03D
:100760007091EC002091ED005091F00003C0242F17
:10077000762F50E021FF19C03091EB003E7F30937F
:10078000EB003091ED003D7F3093ED003091EB00B8
:1007900031603093EB007093EC002093ED005093A8
:1007A000F0002091EE0027FF07C09F5FD3CF8F702E
:1007B0008093E90081E0089580E00895EF92FF9230
:1007C0000F931F93CF93DF93E62EEC018C010C5F08
:1007D0001F4FF12CFE1491F15881552351F1F8016E
:1007E000208169817A8131979081852F8F70873040
:1007F00010F080E024C0223010F442E001C046E056
:10080000E8E0F0E020E0E617F70720F42F5FEE0FB6
:10081000FF1FF9CF2295207F422BF0E49F9F90018C
:100820001124551F5527551F652F622B92DF8823F2
:1008300001F3F39425960B5F1F4FCCCF81E0DF913E
:10084000CF911F910F91FF90EF90089580914E01ED
:1008500087FF11C08091E80082FD05C080914D01A5
:100860008111F8CF11C08091E8008B770BC0809187
:100870004D01882349F08091E80080FFF8CF8091F6
:10088000E8008E778093E80008952091E40030918D
:10089000E50095E64091EC00842F817040FF22C076
:1008A0008091E80080FD1CC080914D01882391F06B
:1008B000853091F08091EB0085FD10C04091E400FF
:1008C0005091E5004217530729F39A01915011F70F
:1008D00084E0089582E0089583E0089581E008951A
:1008E00080E008954091E80042FFDECF08950F9325
:1008F0001F93CF93DF934BD052D0C8EDD0E08881C7
:100900008F77888388818068888388818F7D8883BA
:1009100019BC10924D011092490110924B01109296
:100920004A0100EE10E0F80180818B7F808388818E
:100930008160888342E060E080E00BDFE1EEF0E080
:1009400080818E7F8083E2EEF0E080818160808311
:10095000808188608083F80180818E7F8083888198
:1009600080618883DF91CF911F910F910895E8ED09
:10097000F0E080818F7E8083E7EDF0E08081816010
:10098000808384E082BF81E080934C01B0CFE8EDAA
:10099000F0E080818E7F80831092E20008951092B3
:1009A000DA001092E10008951F920F920FB60F9295
:1009B00011242F933F934F935F936F937F938F9364
:1009C0009F93AF93BF93EF93FF938091E10082FFDA
:1009D0000AC08091E20082FF06C08091E1008B7F17
:1009E0008093E100D7DB8091DA0080FF1DC0809109
:1009F000D80080FF19C08091DA008E7F8093DA00E2
:100A00008091D90080FF0CC080E189BD82E189BD61
:100A100009B400FEFDCF81E080934D01ADDB04C041
:100A200019BC10924D01A9DB8091E10080FF18C034
:100A30008091E20080FF14C08091E2008E7F80935D
:100A4000E2008091E20080618093E2008091D80012
:100A500080628093D80019BC85E080934D01BCD1A1
:100A60008091E10084FF2FC08091E20084FF2BC0C1
:100A700080E189BD82E189BD09B400FEFDCF80918E
:100A8000D8008F7D8093D8008091E1008F7E809385
:100A9000E1008091E2008F7E8093E2008091E2008D
:100AA00081608093E20080914901882311F084E005
:100AB00007C08091E30087FD02C081E001C083E0B0
:100AC00080934D0189D18091E10083FF22C0809104
:100AD000E20083FF1EC08091E100877F8093E100E8
:100AE00082E080934D01109249018091E1008E7F58
:100AF0008093E1008091E2008E7F8093E2008091FC
:100B0000E20080618093E20042E060E080E021DE6C
:100B100063D1FF91EF91BF91AF919F918F917F91A1
:100B20006F915F914F913F912F910F900FBE0F905A
:100B30001F9018951F93CF93DF93CDB7DEB7AA9779
:100B40000FB6F894DEBF0FBECDBFEEE4F1E088E053
:100B50008E0F9091F10091938E13FBCF18DB809153
:100B6000E80083FF21C180914E0190914F019530A3
:100B700009F478C030F4913081F168F0933069F174
:100B800013C1983009F4E2C0993009F4F1C09630ED
:100B900009F00AC189C0803881F0823809F004C1A7
:100BA000809152018F708093E9008091EB0085FB6A
:100BB000882780F91092E90006C080914A0190913F
:100BC0004B01911182609091E800977F9093E8002B
:100BD0008093F1001092F100C4C0282F2D7F09F0FE
:100BE000E3C0882319F0823061F0DEC080915001AB
:100BF000813009F0D9C0933009F080E080934B0137
:100C00002BC080915001811127C0809152018F70BB
:100C100009F4CAC08093E9002091EB0020FF1CC0BA
:100C2000933021F48091EB00806214C09091EB002E
:100C300090619093EB0021E030E0A90102C0440FE5
:100C4000551F8A95E2F74093EA001092EA008091DE
:100C5000EB0088608093EB001092E9008091E8003F
:100C6000877F82C08111A0C0109150011F778091B1
:100C7000E3008078812B8093E3008091E800877FF8
:100C80008093E800E3DD8091E80080FFFCCF809155
:100C9000E30080688093E300111102C082E001C08C
:100CA00083E080934D0180C08058823008F07CC082
:100CB00080915001909151018C3D53E0950771F561
:100CC00083E08A838AE289834FB7F894DE01139622
:100CD00020E03EE051E2E32FF0E050935700E49132
:100CE00020FF03C0E295EF703F5FEF708E2F90E022
:100CF000EA3010F0C79601C0C0968D939D932F5F88
:100D0000243149F74FBF8091E800877F8093E80046
:100D10006AE270E0CE01019618DC12C0AE014F5FAE
:100D20005F4F6091520184DBBC01009709F43CC025
:100D30009091E800977F9093E80089819A81A8DCE0
:100D40008091E8008B778093E8002EC0803861F5B1
:100D50008091E800877F8093E8008091490180932B
:100D6000F1008091E8008E778093E8006FDD1CC071
:100D700081111AC0909150019230B0F48091E80036
:100D8000877F8093E8009093490160DD809149015D
:100D9000811106C08091E30087FD02C081E001C09F
:100DA00084E080934D01EAD98091E80083FF0AC076
:100DB0008091E800877F8093E8008091EB0080625B
:100DC0008093EB00AA960FB6F894DEBF0FBECDBF9E
:100DD000DF91CF911F9108950895CF9380914D0198
:100DE000882399F0C091E900CF709091EC00892F91
:100DF000817090FD80E8C82B1092E9008091E80096
:100E000083FD98DECF70C093E900CF9108956F9273
:100E10007F928F929F92AF92BF92CF92DF92EF928A
:100E2000FF920F931F93CF93DF9300D01F92CDB704
:100E3000DEB77C01CDB6DEB68091E80083FF08C145
:100E4000F701808190E020915201309153012817E1
:100E5000390709F0FDC080914F01833009F49FC02C
:100E600030F4813071F0823009F4D6C0F1C08A309C
:100E700009F4BAC08B3009F4A3C0893009F0E8C086
:100E800051C080914E01813A09F0E2C08DB69EB604
:100E90001A82198280915001109151018B83F701C0
:100EA0008085482F50E08DB79EB7841B950B0FB6F9
:100EB000F8949EBF0FBE8DBFEDB7FEB731965F01B0
:100EC00060E070E0CF012BD24FEF410F8E010F5F3A
:100ED0001F4F9501BE016D5F7F4FC70167D9F701B5
:100EE00086819781009721F0408550E0B5010ED2B0
:100EF0001092E9008091E800877F8093E8008B8161
:100F000081118093F10069817A81C5011EDB809196
:100F1000E8008B778093E8000FB6F8949EBE0FBE72
:100F20008DBE96C080914E01813209F091C0ADB660
:100F3000BEB600915401109155017090500160901F
:100F400051018DB79EB7801B910B0FB6F8949EBFD1
:100F50000FBE8DBFEDB7FEB731964F018091E8000F
:100F6000877F8093E800B801CF0152DB8091E800D1
:100F70008E778093E80021E0711001C020E030E01E
:100F8000021B130B280D391D4FEF460D672DC701AE
:100F900035DA0FB6F894BEBE0FBEADBE59C0809113
:100FA0004E01813A09F054C08091E800877F809318
:100FB000E8008091E80080FFFCCFF701818540C008
:100FC00080914E01813209F043C08091E800877F13
:100FD0008093E8003BDC9091500181E0911101C0C9
:100FE00080E0F701818734C080914E01813281F524
:100FF0008091E800877F8093E80028DC8091500191
:1010000090915101882736E0969587953A95E1F7BA
:10101000F701958784871CC080914E01813AC1F405
:101020008091E800877F8093E8008091E80080FF4E
:10103000FCCFF7018485958596958795969587953C
:101040008093F1008091E8008E778093E800FEDBCA
:101050000FB6F894DEBE0FBECDBE0F900F900F906E
:10106000DF91CF911F910F91FF90EF90DF90CF9084
:10107000BF90AF909F908F907F906F900895FC01EC
:10108000399627E0DF011D922A95E9F721E0FC015E
:10109000218724EF31E03587248723E0248361E032
:1010A00001968CCB4F925F926F927F928F929F921C
:1010B000AF92BF92CF92DF92EF92FF920F931F9366
:1010C000CF93DF9300D01F92CDB7DEB77C01ADB6D2
:1010D000BEB680914D01843009F08DC08091E4004E
:1010E0009091E500F701228533852817390709F427
:1010F00082C081818F708093E9008091E80085FF34
:101100007AC08DB69EB6408550E08DB79EB7841BE1
:10111000950B0FB6F8949EBF0FBE8DBFEDB7FEB70F
:1011200031966F011B821A82198260E070E0CF0154
:10113000F6D08E010F5F1F4F960140E0BE016D5F3C
:101140007F4FC70133D8482EF70184859585892BB9
:1011500051F091E080E026853785232B09F090E05F
:10116000092F182F02C000E010E0F7016680778099
:101170006114710489F049815A81B301C601B9D063
:1011800055245394892B09F4512CF701408550E0E4
:10119000B601C301BBD001C0512C89819A81892B32
:1011A000F1F0411004C0511002C0012BC1F0F70151
:1011B000848595859787868781818F708093E900E4
:1011C0008B8181118093F10069817A8140E050E048
:1011D000C60171D98091E8008E778093E8008091F4
:1011E000E4009091E500F701938782870FB6F894A9
:1011F0009EBE0FBE8DBE0FB6F894BEBE0FBEADBE76
:101200000F900F900F90DF91CF911F910F91FF9052
:10121000EF90DF90CF90BF90AF909F908F907F9096
:101220006F905F904F90089594EA9093BC0094E67D
:10123000699FB00111249B0140E054EA211531055A
:10124000F9F0411122C09091BC0097FF12C090911B
:10125000B900987F903161F0983339F0983041F0BF
:1012600084E08093BC0081E008955093BC00E6CFF9
:1012700041E095E39A95F1F7000021503109DECF66
:1012800084E08093BC0082E008958093BB0084E8F2
:101290008093BC006115710559F08091BC0087FDF9
:1012A00009C085E38A95F1F7000061507109F2CF1A
:1012B00083E008958091B900887F883111F480E03F
:1012C00008958034E1F384E98093BC0084E00895BC
:1012D0008093BB0084E88093BC008091BC0087FFB2
:1012E000FCCF9091B900987F81E0983209F080E0BE
:1012F0000895FB01DC0104C08D910190801921F457
:1013000041505040C8F7881B990B0895FB01DC0140
:1013100002C001900D9241505040D8F70895DC0171
:1013200001C06D9341505040E0F70895F999FECF08
:1013300092BD81BDF89A992780B50895262FF99915
:10134000FECF92BD81BDF89A019700B4021639F024
:101350001FBA20BD0FB6F894FA9AF99A0FBE0895F5
:04136000F894FFCF2F
:1013640000810800000141010800000000000000A5
:101374000101017D7840000002EE2000400069F187
:061384000000000018113A
:00000001FF
