:1000000094C00000B0C00000AEC00000ACC0000052
:10001000AAC00000A8C00000A6C00000A4C0000044
:10002000A2C00000A0C00000A7C400009CC0000047
:100030009AC0000098C0000096C0000094C0000064
:1000400092C0000090C000008EC000008CC0000074
:100050008AC0000088C0000086C0000084C0000084
:1000600082C0000080C000007EC000007CC0000094
:100070007AC0000078C0000076C0000074C00000A4
:1000800072C0000070C000006EC000006CC00000B4
:100090006AC0000068C000002003530069006700C8
:1000A0006E0061006C00670065006E006500720004
:1000B000610074006F007200000016034C006100C4
:1000C000620043006F006E006E0065006300740004
:1000D00000000403090409022200010100C03209E2
:1000E0000400000103000000092111010001222089
:1000F0000007058103080005120110010000000837
:10010000091222220100010200010600FF0901A1DB
:10011000010902150025FF7508950C8102090315D8
:100120000025FF7508950C9102C011241FBECFEF6A
:10013000D0E2DEBFCDBF11E0A0E0B1E0E2E7F2E146
:1001400000E00BBF02C007900D92A632B107D9F7AD
:1001500011E0A6E2B1E001C01D92A336B107E1F7BC
:10016000E0D00C9437094CCF0895089580E091E0D9
:1001700072D7E2EEF0E0808184608083089580E0B1
:1001800091E031C680910E0190910F01009729F006
:10019000019790930F0180930E0108950F931F9381
:1001A000ABE3B1E0F9018D91819381E0A734B80709
:1001B000D1F78CE090E0F8019183808380E01F917B
:1001C0000F91089582E180933B01EAE1F1E0ACE315
:1001D000B1E081918D9381E0E432F807D1F7089581
:1001E000ABE3B1E0E5E3F1E080818D9311921BB8C0
:1001F00081E0EB33F807C1F70895809124018BB9B2
:1002000080911B0190911A01289822E02A95F1F71C
:1002100000C09EBD0DB407FEFDCF8EBD0DB407FE20
:10022000FDCF82E08A95F1F700C0289A80911F01E6
:1002300090911E01289822E02A95F1F700C09EBDFA
:100240000DB407FEFDCF8EBD0DB407FEFDCF82E0DD
:100250008A95F1F700C0289A80911D0190911C01A8
:10026000289822E02A95F1F700C09EBD0DB407FE44
:10027000FDCF8EBD0DB407FEFDCF82E08A95F1F76C
:1002800000C0289A08950F931F93CF93DF9384B7EC
:10029000877F84BF88E10FB6F89480936000109246
:1002A00060000FBE80EF8AB990E080E80FB6F89446
:1002B00080936100909361000FBE43D3209A289AE7
:1002C00084B1866084B9239885B18A6085B98DB57B
:1002D00081608DBD8AE58CBD8091BC008460809377
:1002E000BC001092B9008CE08093B80085E090E0EB
:1002F000A4D7803189F40AE111E0C4E1D0E0CE0155
:100300009CD7F80181938F012196C032D105B9F7AE
:1003100074DF80E180931101DF91CF911F910F91E4
:100320000895B1DF789480E091E0A8D642D5FBCF64
:100330000F931F93CF93DF93A8E2B1E00AE111E09E
:10034000F8018D91819381E0E732F807D1F755DF0D
:100350008091260180FD06C08091260184FF0EC099
:1003600060E10DC0C4E1D0E0F80161918F01CE01E0
:100370006CD72196C032D105B9F7EECF60E085E0A9
:1003800090E0DF91CF911F910F915FC7982F9295C9
:10039000907F9BB9E5E3F1E093E1908381838283D1
:1003A000838384838583089580912801853519F09E
:1003B00082E090E0EBCF80E180933B01E0E1F1E06F
:1003C000ACE3B1E081918D9381E0ED31F807D1F795
:1003D0000895E7E2F1E0D9018D919D018193B1E0AB
:1003E000E333FB07C1F780912701813039F028F012
:1003F000823029F0833021F4F3CED6CF99CFE2CEEC
:1004000081E090E0C3CF292F332723303105E1F07D
:100410005CF42130310599F02230310579F582E222
:1004200090E026ED30E02EC02132310511F122326C
:10043000310521F580E290E02AE031E023C082E13D
:1004400090E028EF30E01EC099278130910541F0FF
:100450008230910541F0892B89F4E2EDF0E005C08E
:10046000EAEBF0E002C0E8E9F0E0849190E09F015F
:1004700009C089E090E028EE30E004C080E090E020
:1004800020E030E0FA01318320830895CF92DF929B
:10049000EF92FF920F931F93CF93DF93EC018B01A9
:1004A0007A01D8D1811133C0E114F10439F0F70198
:1004B00080819181081B190BC80FD91FC12CD12C29
:1004C0000115110519F18091E80085FD16C0809194
:1004D000E8008E778093E8006CD4E114F10449F0D1
:1004E000F70180819181C80ED91ED182C08285E03A
:1004F0000EC0B0D1882321F30AC089918093F10006
:1005000001501109FFEFCF1ADF0ADACF80E0DF9147
:10051000CF911F910F91FF90EF90DF90CF900895B2
:1005200020916101309162012617370748F061156B
:10053000710539F42091E8002E772093E80001C07E
:10054000B90140E06115710599F120915A0122230A
:1005500009F441C0253009F440C02091E80023FD92
:100560003EC02091E80022FD30C02091E80020FF2D
:10057000E9CF2091F2003091F300FC01CF01611529
:10058000710559F02830310540F481918093F100D4
:10059000615071092F5F3F4FF1CF41E028303105A5
:1005A00009F040E02091E8002E772093E800CACFC0
:1005B0004111CBCF0AC080915A01882361F0853068
:1005C00061F08091E80083FD0AC08091E80082FF1D
:1005D000F2CF80E0089582E0089583E0089581E0FD
:1005E00008956115710529F42091E8002B77209377
:1005F000E800FC016115710531F180915A018823F1
:1006000051F1853051F18091E80083FD22C0809145
:10061000E80082FFEFCF8091F2009091F300892BE8
:1006200031F08091F100819361507109A1F78091BF
:10063000E8008B778093E800DDCF80915A01882312
:1006400051F0853051F08091E80080FFF6CF80E0D6
:10065000089581E0089582E0089583E0089520914F
:100660006101309162012617370748F06115710565
:1006700039F42091E8002E772093E80001C0B901F9
:10068000FC0120E06115710581F180915A018823F8
:1006900009F43EC0853009F43DC08091E80083FD37
:1006A0003BC08091E80082FD2DC08091E80080FF72
:1006B000E9CF8091F2009091F3006115710559F036
:1006C0008830910540F424912093F10031966150D7
:1006D00071090196F2CF21E0089709F020E080919E
:1006E000E8008E778093E800CDCF2111CECF0AC0ED
:1006F00080915A01882361F0853061F08091E80093
:1007000083FD0AC08091E80082FFF2CF80E0089567
:1007100082E0089583E0089581E00895982F97304E
:1007200058F59093E900981739F07091EC002091FA
:10073000ED005091F00003C0242F762F50E021FFF0
:1007400019C03091EB003E7F3093EB003091ED000B
:100750003D7F3093ED003091EB0031603093EB0042
:100760007093EC002093ED005093F0002091EE0088
:1007700027FF07C09F5FD3CF8F708093E90081E090
:10078000089580E00895EF92FF920F931F93CF9307
:10079000DF93E62EEC018C010C5F1F4FF12CFE1451
:1007A00091F15881552351F1F801208169817A81B5
:1007B00031979081852F8F70873010F080E024C0B2
:1007C000223010F442E001C046E0E8E0F0E020E032
:1007D000E617F70720F42F5FEE0FFF1FF9CF2295E2
:1007E000207F422BF0E49F9F90011124551F552735
:1007F000551F652F622B92DF882301F3F394259612
:100800000B5F1F4FCCCF81E0DF91CF911F910F91F4
:10081000FF90EF90089580915B0187FF11C0809158
:10082000E80082FD05C080915A018111F8CF11C006
:100830008091E8008B770BC080915A01882349F0A2
:100840008091E80080FFF8CF8091E8008E77809358
:10085000E80008952091E4003091E50095E640918C
:10086000EC00842F817040FF22C08091E80080FD61
:100870001CC080915A01882391F0853091F08091BD
:10088000EB0085FD10C04091E4005091E500421757
:10089000530729F39A01915011F784E0089582E0FB
:1008A000089583E0089581E0089580E008954091DF
:1008B000E80042FFDECF08950F931F93CF93DF939D
:1008C0004ED055D0C8EDD0E088818F77888388815D
:1008D0008068888388818F7D8883E7EDF0E0808160
:1008E0008068808319BC10925A01109256011092B0
:1008F00058011092570100EE10E0F80180818B7FC3
:10090000808388818160888342E060E080E006DF48
:10091000E1EEF0E080818E7F8083E2EEF0E0808186
:1009200081608083808188608083F80180818E7FF0
:100930008083888180618883DF91CF911F910F919F
:100940000895E8EDF0E080818F7E8083E7EDF0E0B0
:1009500080818160808381E080935901ADCFE8ED93
:10096000F0E080818C7F80831092E20008951092E5
:10097000DA001092E10008951F920F920FB60F92C5
:1009800011240BB60F922F933F934F935F936F9366
:100990007F938F939F93AF93BF93EF93FF93809138
:1009A000E10082FF0AC08091E20082FF06C08091D0
:1009B000E1008B7F8093E100E5DB8091DA0080FF2E
:1009C0001DC08091D80080FF19C08091DA008E7F11
:1009D0008093DA008091D90080FF0CC08CE089BD43
:1009E0008EE089BD09B400FEFDCF81E080935A01FD
:1009F000BBDB04C019BC10925A01B7DB8091E10047
:100A000080FF18C08091E20080FF14C08091E20056
:100A10008E7F8093E2008091E20080618093E2000B
:100A20008091D80080628093D80019BC85E08093C3
:100A30005A01BED18091E10084FF2FC08091E20075
:100A400084FF2BC08CE089BD8EE089BD09B400FE17
:100A5000FDCF8091D8008F7D8093D8008091E100F8
:100A60008F7E8093E1008091E2008F7E8093E20090
:100A70008091E20081608093E2008091560188239A
:100A800011F084E007C08091E30087FD02C081E09F
:100A900001C083E080935A018BD18091E10083FFF4
:100AA00022C08091E20083FF1EC08091E100877F19
:100AB0008093E10082E080935A0110925601809168
:100AC000E1008E7F8093E1008091E2008E7F809331
:100AD000E2008091E20080618093E20042E060E009
:100AE00080E01CDE65D1FF91EF91BF91AF919F91A6
:100AF0008F917F916F915F914F913F912F910F90C7
:100B00000BBE0F900FBE0F901F9018951F93CF93A1
:100B1000DF93CDB7DEB7AA970FB6F894DEBF0FBE4E
:100B2000CDBFEBE5F1E088E08E0F9091F10091935D
:100B30008E13FBCF24DB8091E80083FF21C18091DD
:100B40005B0190915C01953009F478C030F49130EC
:100B500081F168F0933069F113C1983009F4E2C073
:100B6000993009F4F1C0963009F00AC189C0803883
:100B700081F0823809F004C180915F018F70809309
:100B8000E9008091EB0085FB882780F91092E9004D
:100B900006C0809157019091580191118260909107
:100BA000E800977F9093E8008093F1001092F100A5
:100BB000C4C0282F2D7F09F0E3C0882319F08230AC
:100BC00061F0DEC080915D01813009F0D9C09330C1
:100BD00009F080E0809358012BC080915D01811164
:100BE00027C080915F018F7009F4CAC08093E9002B
:100BF0002091EB0020FF1CC0933021F48091EB008A
:100C0000806214C09091EB0090619093EB0021E022
:100C100030E0A90102C0440F551F8A95E2F74093C6
:100C2000EA001092EA008091EB0088608093EB006C
:100C30001092E9008091E800877F82C08111A0C0F6
:100C400010915D011F778091E3008078812B809364
:100C5000E3008091E800877F8093E800DCDD8091ED
:100C6000E80080FFFCCF8091E30080688093E30080
:100C7000111102C082E001C083E080935A0180C05C
:100C80008058823008F07CC080915D0190915E01B7
:100C90008C3D53E0950771F583E08A838AE289836E
:100CA0004FB7F894DE01139620E03EE051E2E32FC7
:100CB000F0E050935700E49120FF03C0E295EF70FD
:100CC0003F5FEF708E2F90E0EA3010F0C79601C0C2
:100CD000C0968D939D932F5F243149F74FBF80912C
:100CE000E800877F8093E8006AE270E0CE01019619
:100CF00017DC12C0AE014F5F5F4F60915F0183DB75
:100D0000BC01009709F43CC09091E800977F909354
:100D1000E80089819A81A3DC8091E8008B77809339
:100D2000E8002EC0803861F58091E800877F8093CD
:100D3000E800809156018093F1008091E8008E7761
:100D40008093E80068DD1CC081111AC090915D019C
:100D50009230B0F48091E800877F8093E800909310
:100D6000560159DD80915601811106C08091E30042
:100D700087FD02C081E001C084E080935A01F6D96A
:100D80008091E80083FF0AC08091E800877F80930C
:100D9000E8008091EB0080628093EB00AA960FB68A
:100DA000F894DEBF0FBECDBFDF91CF911F910895A4
:100DB0000895CF9380915A01882399F0C091E9005A
:100DC000CF709091EC00892F817090FD80E8C82B46
:100DD0001092E9008091E80083FD98DECF70C09307
:100DE000E900CF9108956F927F928F929F92AF9278
:100DF000BF92CF92DF92EF92FF920F931F93CF9308
:100E0000DF9300D01F92CDB7DEB77C01CDB6DEB642
:100E10008091E80083FF08C1F701808190E0209174
:100E20005F01309160012817390709F0FDC08091FA
:100E30005C01833009F49FC030F4813071F082305E
:100E400009F4D6C0F1C08A3009F4BAC08B3009F475
:100E5000A3C0893009F0E8C051C080915B01813A9C
:100E600009F0E2C08DB69EB61A82198280915D01AA
:100E700010915E018B83F7018085482F50E08DB77C
:100E80009EB7841B950B0FB6F8949EBF0FBE8DBF07
:100E9000EDB7FEB731965F0160E070E0CF01C6D1DB
:100EA0004FEF410F8E010F5F1F4F9501BE016D5F28
:100EB0007F4FC70173D9F70186819781009721F091
:100EC000408550E0B501A9D11092E9008091E80079
:100ED000877F8093E8008B8181118093F100698185
:100EE0007A81C5011DDB8091E8008B778093E80053
:100EF0000FB6F8949EBE0FBE8DBE96C080915B016A
:100F0000813209F091C0ADB6BEB600916101109179
:100F1000620170905D0160905E018DB79EB7801B8D
:100F2000910B0FB6F8949EBF0FBE8DBFEDB7FEB705
:100F300031964F018091E800877F8093E800B801E7
:100F4000CF014FDB8091E8008E778093E80021E0AD
:100F5000711001C020E030E0021B130B280D391D79
:100F60004FEF460D672DC70134DA0FB6F894BEBEB9
:100F70000FBEADBE59C080915B01813A09F054C0EB
:100F80008091E800877F8093E8008091E80080FFEF
:100F9000FCCFF701818540C080915B01813209F06F
:100FA00043C08091E800877F8093E80034DC909113
:100FB0005D0181E0911101C080E0F701818734C0BB
:100FC00080915B01813281F58091E800877F809379
:100FD000E80021DC80915D0190915E01882736E078
:100FE000969587953A95E1F7F701958784871CC018
:100FF00080915B01813AC1F48091E800877F809302
:10100000E8008091E80080FFFCCFF701848595859A
:1010100096958795969587958093F1008091E80045
:101020008E778093E800F7DB0FB6F894DEBE0FBE34
:10103000CDBE0F900F900F90DF91CF911F910F9128
:10104000FF90EF90DF90CF90BF90AF909F908F90E8
:101050007F906F900895FC01399627E0DF011D9283
:101060002A95E9F721E0FC01218724EF31E035875B
:10107000248723E0248361E0019685CB4F925F9221
:101080006F927F928F929F92AF92BF92CF92DF9298
:10109000EF92FF920F931F93CF93DF9300D01F9295
:1010A000CDB7DEB77C01ADB6BEB680915A018430B3
:1010B00009F08DC08091E4009091E500F701228550
:1010C00033852817390709F482C081818F70809396
:1010D000E9008091E80085FF7AC08DB69EB6408514
:1010E00050E08DB79EB7841B950B0FB6F8949EBF4A
:1010F0000FBE8DBFEDB7FEB731966F011B821A820E
:10110000198260E070E0CF0191D08E010F5F1F4F18
:10111000960140E0BE016D5F7F4FC7013FD8482E6A
:10112000F70184859585892B51F091E080E0268533
:101130003785232B09F090E0092F182F02C000E01B
:1011400010E0F701668077806114710489F04981AD
:101150005A81B301C60154D055245394892B09F404
:10116000512CF701408550E0B601C30156D001C0B3
:10117000512C89819A81892BF1F0411004C05110C2
:1011800002C0012BC1F0F70184859585978786877A
:1011900081818F708093E9008B8181118093F100B0
:1011A00069817A8140E050E0C60170D98091E80001
:1011B0008E778093E8008091E4009091E500F7013C
:1011C000938782870FB6F8949EBE0FBE8DBE0FB672
:1011D000F894BEBE0FBEADBE0F900F900F90DF9182
:1011E000CF911F910F91FF90EF90DF90CF90BF9024
:1011F000AF909F908F907F906F905F904F900895E9
:10120000FB01DC0104C08D910190801921F4415053
:101210005040C8F7881B990B0895FB01DC0102C000
:1012200001900D9241505040D8F70895DC0101C063
:101230006D9341505040E0F70895F999FECF92BD6B
:1012400081BDF89A992780B50895262FF999FECF88
:1012500092BD81BDF89A019700B4021639F01FBA09
:1012600020BD0FB6F894FA9AF99A0FBE0895F89433
:02127000FFCFAE
:101272000081080000014A010C000000000000008B
:101282000200017D779E000002EE2000400069F11D
:061292000000000018112D
:00000001FF
